:100000000C9434000C9451000C9451000C94510049
:100010000C9451000C9451000C9451000C9451001C
:100020000C9451000C9451000C9454000C947B00DF
:100030000C9451000C9451000C9451000C945100FC
:100040000C9451000C9451000C9451000C945100EC
:100050000C9451000C9451000C9451000C945100DC
:100060000C9451000C94510011241FBECFEFD8E026
:10007000DEBFCDBF11E0A0E0B1E0E2E5F1E002C0FB
:1000800005900D92A030B107D9F721E0A0E0B1E0D2
:1000900001C01D92A930B207E1F70E9453000C94F1
:1000A000A7000C940000FFCF1F920F920FB60F9283
:1000B00011242F933F934F935F936F937F938F936D
:1000C0009F93AF93BF93EF93FF93E0910001F09163
:1000D00001010995FF91EF91BF91AF919F918F9190
:1000E0007F916F915F914F913F912F910F900FBE34
:1000F0000F901F9018951F920F920FB60F92112418
:100100002F933F934F935F936F937F938F939F931F
:10011000AF93BF93EF93FF93809108018F5F80931C
:100120000801E0910201F09103010995FF91EF911F
:10013000BF91AF919F918F917F916F915F914F91FF
:100140003F912F910F900FBE0F901F901895F8942C
:02015000FFCFDF
:00000001FF
